{
  "contractName": "IPFSStorage",
  "abi": [
    {
      "inputs": [
        {
          "internalType": "uint256",
          "name": "",
          "type": "uint256"
        }
      ],
      "name": "clients",
      "outputs": [
        {
          "internalType": "string",
          "name": "",
          "type": "string"
        }
      ],
      "stateMutability": "view",
      "type": "function",
      "constant": true
    },
    {
      "inputs": [
        {
          "internalType": "string",
          "name": "",
          "type": "string"
        }
      ],
      "name": "ipfsHashes",
      "outputs": [
        {
          "internalType": "string",
          "name": "",
          "type": "string"
        }
      ],
      "stateMutability": "view",
      "type": "function",
      "constant": true
    },
    {
      "inputs": [
        {
          "internalType": "string",
          "name": "clientId",
          "type": "string"
        },
        {
          "internalType": "string",
          "name": "ipfsHash",
          "type": "string"
        }
      ],
      "name": "storeHash",
      "outputs": [],
      "stateMutability": "nonpayable",
      "type": "function"
    },
    {
      "inputs": [
        {
          "internalType": "string",
          "name": "clientId",
          "type": "string"
        }
      ],
      "name": "getHash",
      "outputs": [
        {
          "internalType": "string",
          "name": "",
          "type": "string"
        }
      ],
      "stateMutability": "view",
      "type": "function",
      "constant": true
    },
    {
      "inputs": [],
      "name": "getRegisteredClients",
      "outputs": [
        {
          "internalType": "string[]",
          "name": "",
          "type": "string[]"
        }
      ],
      "stateMutability": "view",
      "type": "function",
      "constant": true
    }
  ],
  "bytecode": "0x608060405234801561001057600080fd5b50610cda806100206000396000f3fe608060405234801561001057600080fd5b50600436106100575760003560e01c8063518148991461005c5780635b6beeb91461007a5780636f28ee09146100aa578063b5b9cd95146100c6578063f88af21d146100f6575b600080fd5b610064610126565b604051610071919061060c565b60405180910390f35b610094600480360381019061008f9190610777565b6101ff565b6040516100a1919061080a565b60405180910390f35b6100c460048036038101906100bf919061082c565b6102af565b005b6100e060048036038101906100db9190610777565b610358565b6040516100ed919061080a565b60405180910390f35b610110600480360381019061010b91906108da565b61040e565b60405161011d919061080a565b60405180910390f35b60606001805480602002602001604051908101604052809291908181526020016000905b828210156101f657838290600052602060002001805461016990610936565b80601f016020809104026020016040519081016040528092919081815260200182805461019590610936565b80156101e25780601f106101b7576101008083540402835291602001916101e2565b820191906000526020600020905b8154815290600101906020018083116101c557829003601f168201915b50505050508152602001906001019061014a565b50505050905090565b606060008260405161021191906109a3565b9081526020016040518091039020805461022a90610936565b80601f016020809104026020016040519081016040528092919081815260200182805461025690610936565b80156102a35780601f10610278576101008083540402835291602001916102a3565b820191906000526020600020905b81548152906001019060200180831161028657829003601f168201915b50505050509050919050565b60008151116102f3576040517f08c379a00000000000000000000000000000000000000000000000000000000081526004016102ea90610a06565b60405180910390fd5b8060008360405161030491906109a3565b9081526020016040518091039020908161031e9190610bd2565b506001829080600181540180825580915050600190039060005260206000200160009091909190915090816103539190610bd2565b505050565b600081805160208101820180518482526020830160208501208183528095505050505050600091509050805461038d90610936565b80601f01602080910402602001604051908101604052809291908181526020018280546103b990610936565b80156104065780601f106103db57610100808354040283529160200191610406565b820191906000526020600020905b8154815290600101906020018083116103e957829003601f168201915b505050505081565b6001818154811061041e57600080fd5b90600052602060002001600091509050805461043990610936565b80601f016020809104026020016040519081016040528092919081815260200182805461046590610936565b80156104b25780601f10610487576101008083540402835291602001916104b2565b820191906000526020600020905b81548152906001019060200180831161049557829003601f168201915b505050505081565b600081519050919050565b600082825260208201905092915050565b6000819050602082019050919050565b600081519050919050565b600082825260208201905092915050565b60005b83811015610520578082015181840152602081019050610505565b60008484015250505050565b6000601f19601f8301169050919050565b6000610548826104e6565b61055281856104f1565b9350610562818560208601610502565b61056b8161052c565b840191505092915050565b6000610582838361053d565b905092915050565b6000602082019050919050565b60006105a2826104ba565b6105ac81856104c5565b9350836020820285016105be856104d6565b8060005b858110156105fa57848403895281516105db8582610576565b94506105e68361058a565b925060208a019950506001810190506105c2565b50829750879550505050505092915050565b600060208201905081810360008301526106268184610597565b905092915050565b6000604051905090565b600080fd5b600080fd5b600080fd5b600080fd5b7f4e487b7100000000000000000000000000000000000000000000000000000000600052604160045260246000fd5b6106848261052c565b810181811067ffffffffffffffff821117156106a3576106a261064c565b5b80604052505050565b60006106b661062e565b90506106c2828261067b565b919050565b600067ffffffffffffffff8211156106e2576106e161064c565b5b6106eb8261052c565b9050602081019050919050565b82818337600083830152505050565b600061071a610715846106c7565b6106ac565b90508281526020810184848401111561073657610735610647565b5b6107418482856106f8565b509392505050565b600082601f83011261075e5761075d610642565b5b813561076e848260208601610707565b91505092915050565b60006020828403121561078d5761078c610638565b5b600082013567ffffffffffffffff8111156107ab576107aa61063d565b5b6107b784828501610749565b91505092915050565b600082825260208201905092915050565b60006107dc826104e6565b6107e681856107c0565b93506107f6818560208601610502565b6107ff8161052c565b840191505092915050565b6000602082019050818103600083015261082481846107d1565b905092915050565b6000806040838503121561084357610842610638565b5b600083013567ffffffffffffffff8111156108615761086061063d565b5b61086d85828601610749565b925050602083013567ffffffffffffffff81111561088e5761088d61063d565b5b61089a85828601610749565b9150509250929050565b6000819050919050565b6108b7816108a4565b81146108c257600080fd5b50565b6000813590506108d4816108ae565b92915050565b6000602082840312156108f0576108ef610638565b5b60006108fe848285016108c5565b91505092915050565b7f4e487b7100000000000000000000000000000000000000000000000000000000600052602260045260246000fd5b6000600282049050600182168061094e57607f821691505b60208210810361096157610960610907565b5b50919050565b600081905092915050565b600061097d826104e6565b6109878185610967565b9350610997818560208601610502565b80840191505092915050565b60006109af8284610972565b915081905092915050565b7f495046532068617368206d757374206e6f7420626520656d7074790000000000600082015250565b60006109f0601b836107c0565b91506109fb826109ba565b602082019050919050565b60006020820190508181036000830152610a1f816109e3565b9050919050565b60008190508160005260206000209050919050565b60006020601f8301049050919050565b600082821b905092915050565b600060088302610a887fffffffffffffffffffffffffffffffffffffffffffffffffffffffffffffffff82610a4b565b610a928683610a4b565b95508019841693508086168417925050509392505050565b6000819050919050565b6000610acf610aca610ac5846108a4565b610aaa565b6108a4565b9050919050565b6000819050919050565b610ae983610ab4565b610afd610af582610ad6565b848454610a58565b825550505050565b600090565b610b12610b05565b610b1d818484610ae0565b505050565b5b81811015610b4157610b36600082610b0a565b600181019050610b23565b5050565b601f821115610b8657610b5781610a26565b610b6084610a3b565b81016020851015610b6f578190505b610b83610b7b85610a3b565b830182610b22565b50505b505050565b600082821c905092915050565b6000610ba960001984600802610b8b565b1980831691505092915050565b6000610bc28383610b98565b9150826002028217905092915050565b610bdb826104e6565b67ffffffffffffffff811115610bf457610bf361064c565b5b610bfe8254610936565b610c09828285610b45565b600060209050601f831160018114610c3c5760008415610c2a578287015190505b610c348582610bb6565b865550610c9c565b601f198416610c4a86610a26565b60005b82811015610c7257848901518255600182019150602085019450602081019050610c4d565b86831015610c8f5784890151610c8b601f891682610b98565b8355505b6001600288020188555050505b50505050505056fea2646970667358221220fad0f60df24957c3ee84952334b6ac43581acc126ac9732a35fbf95fb4b8ebba64736f6c63430008110033",
  "immutableReferences": {},
  "source": "pragma solidity ^0.8.17;\r\npragma solidity ^0.8.17;\r\n\r\ncontract IPFSStorage {\r\n    mapping(string => string) public ipfsHashes;\r\n    string[] public clients;\r\n\r\n    // Function to store IPFS hash with client ID\r\n    function storeHash(string memory clientId, string memory ipfsHash) public {\r\n        require(bytes(ipfsHash).length > 0, \"IPFS hash must not be empty\");\r\n        ipfsHashes[clientId] = ipfsHash;\r\n        clients.push(clientId);\r\n    }\r\n\r\n    // Function to retrieve IPFS hash for a client\r\n    function getHash(string memory clientId) public view returns (string memory) {\r\n        return ipfsHashes[clientId];\r\n    }\r\n\r\n    // Function to get all registered client keys\r\n    function getRegisteredClients() public view returns (string[] memory) {\r\n        return clients;\r\n    }\r\n}",
  "sourcePath": "C:\\Final\\Backend\\SC\\contracts\\IPFSStorage.sol",
  "compiler": {
    "name": "solc",
    "version": "0.8.17+commit.8df45f5f.Emscripten.clang"
  },
  "schemaVersion": "3.4.16",
  "updatedAt": "2024-07-10T02:45:58.549Z",
  "networkType": "ethereum",
  "devdoc": {
    "kind": "dev",
    "methods": {},
    "version": 1
  },
  "userdoc": {
    "kind": "user",
    "methods": {},
    "version": 1
  }
}