{
  "contractName": "VotingContract",
  "abi": [
    {
      "anonymous": false,
      "inputs": [
        {
          "indexed": true,
          "internalType": "address",
          "name": "voter",
          "type": "address"
        },
        {
          "indexed": false,
          "internalType": "string",
          "name": "name",
          "type": "string"
        },
        {
          "indexed": false,
          "internalType": "uint256",
          "name": "age",
          "type": "uint256"
        },
        {
          "indexed": false,
          "internalType": "string",
          "name": "gender",
          "type": "string"
        },
        {
          "indexed": false,
          "internalType": "string",
          "name": "region",
          "type": "string"
        },
        {
          "indexed": false,
          "internalType": "string",
          "name": "candidate",
          "type": "string"
        }
      ],
      "name": "VoteStored",
      "type": "event"
    },
    {
      "inputs": [
        {
          "internalType": "uint256",
          "name": "",
          "type": "uint256"
        }
      ],
      "name": "voterAddresses",
      "outputs": [
        {
          "internalType": "address",
          "name": "",
          "type": "address"
        }
      ],
      "stateMutability": "view",
      "type": "function",
      "constant": true
    },
    {
      "inputs": [
        {
          "internalType": "address",
          "name": "",
          "type": "address"
        }
      ],
      "name": "voters",
      "outputs": [
        {
          "internalType": "string",
          "name": "name",
          "type": "string"
        },
        {
          "internalType": "uint256",
          "name": "age",
          "type": "uint256"
        },
        {
          "internalType": "string",
          "name": "gender",
          "type": "string"
        },
        {
          "internalType": "string",
          "name": "region",
          "type": "string"
        },
        {
          "internalType": "string",
          "name": "candidate",
          "type": "string"
        }
      ],
      "stateMutability": "view",
      "type": "function",
      "constant": true
    },
    {
      "inputs": [
        {
          "internalType": "string",
          "name": "_name",
          "type": "string"
        },
        {
          "internalType": "uint256",
          "name": "_age",
          "type": "uint256"
        },
        {
          "internalType": "string",
          "name": "_gender",
          "type": "string"
        },
        {
          "internalType": "string",
          "name": "_region",
          "type": "string"
        },
        {
          "internalType": "string",
          "name": "_candidate",
          "type": "string"
        }
      ],
      "name": "storeVote",
      "outputs": [],
      "stateMutability": "nonpayable",
      "type": "function"
    },
    {
      "inputs": [
        {
          "internalType": "address",
          "name": "_voterAddress",
          "type": "address"
        }
      ],
      "name": "getVoter",
      "outputs": [
        {
          "internalType": "string",
          "name": "",
          "type": "string"
        },
        {
          "internalType": "uint256",
          "name": "",
          "type": "uint256"
        },
        {
          "internalType": "string",
          "name": "",
          "type": "string"
        },
        {
          "internalType": "string",
          "name": "",
          "type": "string"
        },
        {
          "internalType": "string",
          "name": "",
          "type": "string"
        }
      ],
      "stateMutability": "view",
      "type": "function",
      "constant": true
    },
    {
      "inputs": [],
      "name": "getVoterAddresses",
      "outputs": [
        {
          "internalType": "address[]",
          "name": "",
          "type": "address[]"
        }
      ],
      "stateMutability": "view",
      "type": "function",
      "constant": true
    }
  ],
  "bytecode": "0x608060405234801561001057600080fd5b506111b2806100206000396000f3fe608060405234801561001057600080fd5b50600436106100575760003560e01c80630a16e30b1461005c5780635f2bf3a01461007a578063a3ec138d14610096578063d4f50f98146100ca578063dd0e2373146100fe575b600080fd5b61006461012e565b60405161007191906109e8565b60405180910390f35b610094600480360381019061008f9190610b9a565b6101bc565b005b6100b060048036038101906100ab9190610cb1565b610346565b6040516100c1959493929190610d6c565b60405180910390f35b6100e460048036038101906100df9190610cb1565b61059c565b6040516100f5959493929190610d6c565b60405180910390f35b61011860048036038101906101139190610ddb565b6108b9565b6040516101259190610e17565b60405180910390f35b606060018054806020026020016040519081016040528092919081815260200182805480156101b257602002820191906000526020600020905b8160009054906101000a900473ffffffffffffffffffffffffffffffffffffffff1673ffffffffffffffffffffffffffffffffffffffff1681526020019060010190808311610168575b5050505050905090565b6040518060a00160405280868152602001858152602001848152602001838152602001828152506000803373ffffffffffffffffffffffffffffffffffffffff1673ffffffffffffffffffffffffffffffffffffffff1681526020019081526020016000206000820151816000019081610236919061103e565b50602082015181600101556040820151816002019081610256919061103e565b50606082015181600301908161026c919061103e565b506080820151816004019081610282919061103e565b509050506001339080600181540180825580915050600190039060005260206000200160009091909190916101000a81548173ffffffffffffffffffffffffffffffffffffffff021916908373ffffffffffffffffffffffffffffffffffffffff1602179055503373ffffffffffffffffffffffffffffffffffffffff167f87f43c5237b546e24986f86ef7405e819eb82752c969b4ee637bc0c7da9e86358686868686604051610337959493929190610d6c565b60405180910390a25050505050565b600060205280600052604060002060009150905080600001805461036990610e61565b80601f016020809104026020016040519081016040528092919081815260200182805461039590610e61565b80156103e25780601f106103b7576101008083540402835291602001916103e2565b820191906000526020600020905b8154815290600101906020018083116103c557829003601f168201915b5050505050908060010154908060020180546103fd90610e61565b80601f016020809104026020016040519081016040528092919081815260200182805461042990610e61565b80156104765780601f1061044b57610100808354040283529160200191610476565b820191906000526020600020905b81548152906001019060200180831161045957829003601f168201915b50505050509080600301805461048b90610e61565b80601f01602080910402602001604051908101604052809291908181526020018280546104b790610e61565b80156105045780601f106104d957610100808354040283529160200191610504565b820191906000526020600020905b8154815290600101906020018083116104e757829003601f168201915b50505050509080600401805461051990610e61565b80601f016020809104026020016040519081016040528092919081815260200182805461054590610e61565b80156105925780601f1061056757610100808354040283529160200191610592565b820191906000526020600020905b81548152906001019060200180831161057557829003601f168201915b5050505050905085565b60606000606080606060008060008873ffffffffffffffffffffffffffffffffffffffff1673ffffffffffffffffffffffffffffffffffffffff1681526020019081526020016000206040518060a001604052908160008201805461060090610e61565b80601f016020809104026020016040519081016040528092919081815260200182805461062c90610e61565b80156106795780601f1061064e57610100808354040283529160200191610679565b820191906000526020600020905b81548152906001019060200180831161065c57829003601f168201915b505050505081526020016001820154815260200160028201805461069c90610e61565b80601f01602080910402602001604051908101604052809291908181526020018280546106c890610e61565b80156107155780601f106106ea57610100808354040283529160200191610715565b820191906000526020600020905b8154815290600101906020018083116106f857829003601f168201915b5050505050815260200160038201805461072e90610e61565b80601f016020809104026020016040519081016040528092919081815260200182805461075a90610e61565b80156107a75780601f1061077c576101008083540402835291602001916107a7565b820191906000526020600020905b81548152906001019060200180831161078a57829003601f168201915b505050505081526020016004820180546107c090610e61565b80601f01602080910402602001604051908101604052809291908181526020018280546107ec90610e61565b80156108395780601f1061080e57610100808354040283529160200191610839565b820191906000526020600020905b81548152906001019060200180831161081c57829003601f168201915b505050505081525050905060008160000151511161088c576040517f08c379a00000000000000000000000000000000000000000000000000000000081526004016108839061115c565b60405180910390fd5b80600001518160200151826040015183606001518460800151955095509550955095505091939590929450565b600181815481106108c957600080fd5b906000526020600020016000915054906101000a900473ffffffffffffffffffffffffffffffffffffffff1681565b600081519050919050565b600082825260208201905092915050565b6000819050602082019050919050565b600073ffffffffffffffffffffffffffffffffffffffff82169050919050565b600061094f82610924565b9050919050565b61095f81610944565b82525050565b60006109718383610956565b60208301905092915050565b6000602082019050919050565b6000610995826108f8565b61099f8185610903565b93506109aa83610914565b8060005b838110156109db5781516109c28882610965565b97506109cd8361097d565b9250506001810190506109ae565b5085935050505092915050565b60006020820190508181036000830152610a02818461098a565b905092915050565b6000604051905090565b600080fd5b600080fd5b600080fd5b600080fd5b6000601f19601f8301169050919050565b7f4e487b7100000000000000000000000000000000000000000000000000000000600052604160045260246000fd5b610a7182610a28565b810181811067ffffffffffffffff82111715610a9057610a8f610a39565b5b80604052505050565b6000610aa3610a0a565b9050610aaf8282610a68565b919050565b600067ffffffffffffffff821115610acf57610ace610a39565b5b610ad882610a28565b9050602081019050919050565b82818337600083830152505050565b6000610b07610b0284610ab4565b610a99565b905082815260208101848484011115610b2357610b22610a23565b5b610b2e848285610ae5565b509392505050565b600082601f830112610b4b57610b4a610a1e565b5b8135610b5b848260208601610af4565b91505092915050565b6000819050919050565b610b7781610b64565b8114610b8257600080fd5b50565b600081359050610b9481610b6e565b92915050565b600080600080600060a08688031215610bb657610bb5610a14565b5b600086013567ffffffffffffffff811115610bd457610bd3610a19565b5b610be088828901610b36565b9550506020610bf188828901610b85565b945050604086013567ffffffffffffffff811115610c1257610c11610a19565b5b610c1e88828901610b36565b935050606086013567ffffffffffffffff811115610c3f57610c3e610a19565b5b610c4b88828901610b36565b925050608086013567ffffffffffffffff811115610c6c57610c6b610a19565b5b610c7888828901610b36565b9150509295509295909350565b610c8e81610944565b8114610c9957600080fd5b50565b600081359050610cab81610c85565b92915050565b600060208284031215610cc757610cc6610a14565b5b6000610cd584828501610c9c565b91505092915050565b600081519050919050565b600082825260208201905092915050565b60005b83811015610d18578082015181840152602081019050610cfd565b60008484015250505050565b6000610d2f82610cde565b610d398185610ce9565b9350610d49818560208601610cfa565b610d5281610a28565b840191505092915050565b610d6681610b64565b82525050565b600060a0820190508181036000830152610d868188610d24565b9050610d956020830187610d5d565b8181036040830152610da78186610d24565b90508181036060830152610dbb8185610d24565b90508181036080830152610dcf8184610d24565b90509695505050505050565b600060208284031215610df157610df0610a14565b5b6000610dff84828501610b85565b91505092915050565b610e1181610944565b82525050565b6000602082019050610e2c6000830184610e08565b92915050565b7f4e487b7100000000000000000000000000000000000000000000000000000000600052602260045260246000fd5b60006002820490506001821680610e7957607f821691505b602082108103610e8c57610e8b610e32565b5b50919050565b60008190508160005260206000209050919050565b60006020601f8301049050919050565b600082821b905092915050565b600060088302610ef47fffffffffffffffffffffffffffffffffffffffffffffffffffffffffffffffff82610eb7565b610efe8683610eb7565b95508019841693508086168417925050509392505050565b6000819050919050565b6000610f3b610f36610f3184610b64565b610f16565b610b64565b9050919050565b6000819050919050565b610f5583610f20565b610f69610f6182610f42565b848454610ec4565b825550505050565b600090565b610f7e610f71565b610f89818484610f4c565b505050565b5b81811015610fad57610fa2600082610f76565b600181019050610f8f565b5050565b601f821115610ff257610fc381610e92565b610fcc84610ea7565b81016020851015610fdb578190505b610fef610fe785610ea7565b830182610f8e565b50505b505050565b600082821c905092915050565b600061101560001984600802610ff7565b1980831691505092915050565b600061102e8383611004565b9150826002028217905092915050565b61104782610cde565b67ffffffffffffffff8111156110605761105f610a39565b5b61106a8254610e61565b611075828285610fb1565b600060209050601f8311600181146110a85760008415611096578287015190505b6110a08582611022565b865550611108565b601f1984166110b686610e92565b60005b828110156110de578489015182556001820191506020850194506020810190506110b9565b868310156110fb57848901516110f7601f891682611004565b8355505b6001600288020188555050505b505050505050565b7f4e6f20766f74657220666f756e64000000000000000000000000000000000000600082015250565b6000611146600e83610ce9565b915061115182611110565b602082019050919050565b6000602082019050818103600083015261117581611139565b905091905056fea26469706673582212209e2bbfca8a4c2ec38d30fd2710e031e66048c43608eb38319ba7ef6d231f618a64736f6c63430008110033",
  "immutableReferences": {},
  "source": "// SPDX-License-Identifier: MIT\r\npragma solidity ^0.8.17;\r\n\r\ncontract VotingContract {\r\n    struct Voter {\r\n        string name;\r\n        uint256 age;\r\n        string gender;\r\n        string region;\r\n        string candidate;\r\n    }\r\n\r\n    mapping(address => Voter) public voters;\r\n    address[] public voterAddresses;\r\n\r\n    event VoteStored(address indexed voter, string name, uint256 age, string gender, string region, string candidate);\r\n\r\n    function storeVote(string memory _name, uint256 _age, string memory _gender, string memory _region, string memory _candidate) public {\r\n        voters[msg.sender] = Voter(_name, _age, _gender, _region, _candidate);\r\n        voterAddresses.push(msg.sender);\r\n        \r\n        emit VoteStored(msg.sender, _name, _age, _gender, _region, _candidate);\r\n    }\r\n\r\n    function getVoter(address _voterAddress) public view returns (string memory, uint256, string memory, string memory, string memory) {\r\n        Voter memory voter = voters[_voterAddress];\r\n        require(bytes(voter.name).length > 0, \"No voter found\");\r\n        return (voter.name, voter.age, voter.gender, voter.region, voter.candidate);\r\n    }\r\n\r\n    function getVoterAddresses() public view returns (address[] memory) {\r\n        return voterAddresses;\r\n    }\r\n}",
  "sourcePath": "C:\\Final\\Backend\\SC\\contracts\\VotingContract.sol",
  "compiler": {
    "name": "solc",
    "version": "0.8.17+commit.8df45f5f.Emscripten.clang"
  },
  "schemaVersion": "3.4.16",
  "updatedAt": "2024-07-10T02:45:58.788Z",
  "networkType": "ethereum",
  "devdoc": {
    "kind": "dev",
    "methods": {},
    "version": 1
  },
  "userdoc": {
    "kind": "user",
    "methods": {},
    "version": 1
  }
}